{
  "_format": "hh-sol-artifact-1",
  "contractName": "TaxiLedger",
  "sourceName": "contracts/TaxiLedger.sol",
  "abi": [
    {
      "inputs": [
        {
          "internalType": "uint256",
          "name": "_base",
          "type": "uint256"
        },
        {
          "internalType": "uint256",
          "name": "_perKm",
          "type": "uint256"
        },
        {
          "internalType": "uint256",
          "name": "_perMin",
          "type": "uint256"
        },
        {
          "internalType": "address",
          "name": "initialOwner",
          "type": "address"
        }
      ],
      "stateMutability": "nonpayable",
      "type": "constructor"
    },
    {
      "inputs": [
        {
          "internalType": "address",
          "name": "owner",
          "type": "address"
        }
      ],
      "name": "OwnableInvalidOwner",
      "type": "error"
    },
    {
      "inputs": [
        {
          "internalType": "address",
          "name": "account",
          "type": "address"
        }
      ],
      "name": "OwnableUnauthorizedAccount",
      "type": "error"
    },
    {
      "anonymous": false,
      "inputs": [
        {
          "indexed": false,
          "internalType": "address",
          "name": "driver",
          "type": "address"
        }
      ],
      "name": "DriverRegistered",
      "type": "event"
    },
    {
      "anonymous": false,
      "inputs": [
        {
          "indexed": false,
          "internalType": "address",
          "name": "driver",
          "type": "address"
        }
      ],
      "name": "DriverRemoved",
      "type": "event"
    },
    {
      "anonymous": false,
      "inputs": [
        {
          "indexed": false,
          "internalType": "uint256",
          "name": "baseFare",
          "type": "uint256"
        },
        {
          "indexed": false,
          "internalType": "uint256",
          "name": "perKmFare",
          "type": "uint256"
        },
        {
          "indexed": false,
          "internalType": "uint256",
          "name": "perMinuteFare",
          "type": "uint256"
        }
      ],
      "name": "FareUpdated",
      "type": "event"
    },
    {
      "anonymous": false,
      "inputs": [
        {
          "indexed": true,
          "internalType": "address",
          "name": "previousOwner",
          "type": "address"
        },
        {
          "indexed": true,
          "internalType": "address",
          "name": "newOwner",
          "type": "address"
        }
      ],
      "name": "OwnershipTransferred",
      "type": "event"
    },
    {
      "anonymous": false,
      "inputs": [
        {
          "indexed": false,
          "internalType": "uint256",
          "name": "tripId",
          "type": "uint256"
        },
        {
          "indexed": false,
          "internalType": "address",
          "name": "driver",
          "type": "address"
        },
        {
          "indexed": false,
          "internalType": "uint256",
          "name": "fare",
          "type": "uint256"
        }
      ],
      "name": "TripRecorded",
      "type": "event"
    },
    {
      "inputs": [],
      "name": "baseFare",
      "outputs": [
        {
          "internalType": "uint256",
          "name": "",
          "type": "uint256"
        }
      ],
      "stateMutability": "view",
      "type": "function"
    },
    {
      "inputs": [
        {
          "internalType": "uint256",
          "name": "distanceMeters",
          "type": "uint256"
        },
        {
          "internalType": "uint256",
          "name": "durationSeconds",
          "type": "uint256"
        }
      ],
      "name": "calculateFare",
      "outputs": [
        {
          "internalType": "uint256",
          "name": "",
          "type": "uint256"
        }
      ],
      "stateMutability": "view",
      "type": "function"
    },
    {
      "inputs": [
        {
          "internalType": "uint256",
          "name": "tripId",
          "type": "uint256"
        }
      ],
      "name": "getTrip",
      "outputs": [
        {
          "components": [
            {
              "internalType": "uint256",
              "name": "id",
              "type": "uint256"
            },
            {
              "internalType": "address",
              "name": "driver",
              "type": "address"
            },
            {
              "internalType": "uint256",
              "name": "distanceMeters",
              "type": "uint256"
            },
            {
              "internalType": "uint256",
              "name": "durationSeconds",
              "type": "uint256"
            },
            {
              "internalType": "uint256",
              "name": "fareMillimes",
              "type": "uint256"
            },
            {
              "internalType": "uint256",
              "name": "timestamp",
              "type": "uint256"
            },
            {
              "internalType": "bytes32",
              "name": "dataHash",
              "type": "bytes32"
            }
          ],
          "internalType": "struct TaxiLedger.Trip",
          "name": "",
          "type": "tuple"
        }
      ],
      "stateMutability": "view",
      "type": "function"
    },
    {
      "inputs": [],
      "name": "owner",
      "outputs": [
        {
          "internalType": "address",
          "name": "",
          "type": "address"
        }
      ],
      "stateMutability": "view",
      "type": "function"
    },
    {
      "inputs": [],
      "name": "perKmFare",
      "outputs": [
        {
          "internalType": "uint256",
          "name": "",
          "type": "uint256"
        }
      ],
      "stateMutability": "view",
      "type": "function"
    },
    {
      "inputs": [],
      "name": "perMinuteFare",
      "outputs": [
        {
          "internalType": "uint256",
          "name": "",
          "type": "uint256"
        }
      ],
      "stateMutability": "view",
      "type": "function"
    },
    {
      "inputs": [
        {
          "internalType": "uint256",
          "name": "distanceMeters",
          "type": "uint256"
        },
        {
          "internalType": "uint256",
          "name": "durationSeconds",
          "type": "uint256"
        },
        {
          "internalType": "bytes32",
          "name": "dataHash",
          "type": "bytes32"
        }
      ],
      "name": "recordTrip",
      "outputs": [],
      "stateMutability": "nonpayable",
      "type": "function"
    },
    {
      "inputs": [
        {
          "internalType": "address",
          "name": "driver",
          "type": "address"
        }
      ],
      "name": "registerDriver",
      "outputs": [],
      "stateMutability": "nonpayable",
      "type": "function"
    },
    {
      "inputs": [
        {
          "internalType": "address",
          "name": "",
          "type": "address"
        }
      ],
      "name": "registeredDrivers",
      "outputs": [
        {
          "internalType": "bool",
          "name": "",
          "type": "bool"
        }
      ],
      "stateMutability": "view",
      "type": "function"
    },
    {
      "inputs": [
        {
          "internalType": "address",
          "name": "driver",
          "type": "address"
        }
      ],
      "name": "removeDriver",
      "outputs": [],
      "stateMutability": "nonpayable",
      "type": "function"
    },
    {
      "inputs": [],
      "name": "renounceOwnership",
      "outputs": [],
      "stateMutability": "nonpayable",
      "type": "function"
    },
    {
      "inputs": [
        {
          "internalType": "address",
          "name": "newOwner",
          "type": "address"
        }
      ],
      "name": "transferOwnership",
      "outputs": [],
      "stateMutability": "nonpayable",
      "type": "function"
    },
    {
      "inputs": [
        {
          "internalType": "uint256",
          "name": "",
          "type": "uint256"
        }
      ],
      "name": "trips",
      "outputs": [
        {
          "internalType": "uint256",
          "name": "id",
          "type": "uint256"
        },
        {
          "internalType": "address",
          "name": "driver",
          "type": "address"
        },
        {
          "internalType": "uint256",
          "name": "distanceMeters",
          "type": "uint256"
        },
        {
          "internalType": "uint256",
          "name": "durationSeconds",
          "type": "uint256"
        },
        {
          "internalType": "uint256",
          "name": "fareMillimes",
          "type": "uint256"
        },
        {
          "internalType": "uint256",
          "name": "timestamp",
          "type": "uint256"
        },
        {
          "internalType": "bytes32",
          "name": "dataHash",
          "type": "bytes32"
        }
      ],
      "stateMutability": "view",
      "type": "function"
    },
    {
      "inputs": [
        {
          "internalType": "uint256",
          "name": "_base",
          "type": "uint256"
        },
        {
          "internalType": "uint256",
          "name": "_perKm",
          "type": "uint256"
        },
        {
          "internalType": "uint256",
          "name": "_perMin",
          "type": "uint256"
        }
      ],
      "name": "updateFareRates",
      "outputs": [],
      "stateMutability": "nonpayable",
      "type": "function"
    }
  ],
  "bytecode": "0x60806040523480156200001157600080fd5b50604051620013a3380380620013a3833981810160405281019062000037919062000247565b80600073ffffffffffffffffffffffffffffffffffffffff168173ffffffffffffffffffffffffffffffffffffffff1603620000ad5760006040517f1e4fbdf7000000000000000000000000000000000000000000000000000000008152600401620000a49190620002ca565b60405180910390fd5b620000be81620000de60201b60201c565b5083600281905550826003819055508160048190555050505050620002e7565b60008060009054906101000a900473ffffffffffffffffffffffffffffffffffffffff169050816000806101000a81548173ffffffffffffffffffffffffffffffffffffffff021916908373ffffffffffffffffffffffffffffffffffffffff1602179055508173ffffffffffffffffffffffffffffffffffffffff168173ffffffffffffffffffffffffffffffffffffffff167f8be0079c531659141344cd1fd0a4f28419497f9722a3daafe3b4186f6b6457e060405160405180910390a35050565b600080fd5b6000819050919050565b620001bc81620001a7565b8114620001c857600080fd5b50565b600081519050620001dc81620001b1565b92915050565b600073ffffffffffffffffffffffffffffffffffffffff82169050919050565b60006200020f82620001e2565b9050919050565b620002218162000202565b81146200022d57600080fd5b50565b600081519050620002418162000216565b92915050565b60008060008060808587031215620002645762000263620001a2565b5b60006200027487828801620001cb565b94505060206200028787828801620001cb565b93505060406200029a87828801620001cb565b9250506060620002ad8782880162000230565b91505092959194509250565b620002c48162000202565b82525050565b6000602082019050620002e16000830184620002b9565b92915050565b6110ac80620002f76000396000f3fe608060405234801561001057600080fd5b50600436106100ea5760003560e01c80638da5cb5b1161008c578063d80d3f1211610066578063d80d3f1214610237578063f0f4fd5e14610255578063f2fde38b14610271578063f6824a7c1461028d576100ea565b80638da5cb5b146101e1578063c26bacd1146101ff578063d3c4adfa1461021b576100ea565b8063205c7c6d116100c8578063205c7c6d1461016d578063328242d81461018b5780635ec5b17d146101bb578063715018a6146101d7576100ea565b806301011705146100ef57806309e7fa351461011f5780630b506b011461014f575b600080fd5b61010960048036038101906101049190610a8c565b6102c3565b6040516101169190610bb0565b60405180910390f35b61013960048036038101906101349190610bf7565b610382565b6040516101469190610c3f565b60405180910390f35b6101576103a2565b6040516101649190610c69565b60405180910390f35b6101756103a8565b6040516101829190610c69565b60405180910390f35b6101a560048036038101906101a09190610c84565b6103ae565b6040516101b29190610c69565b60405180910390f35b6101d560048036038101906101d09190610cc4565b61040f565b005b6101df61046c565b005b6101e9610480565b6040516101f69190610d26565b60405180910390f35b61021960048036038101906102149190610bf7565b6104a9565b005b61023560048036038101906102309190610d6d565b610543565b005b61023f610720565b60405161024c9190610c69565b60405180910390f35b61026f600480360381019061026a9190610bf7565b610726565b005b61028b60048036038101906102869190610bf7565b6107c0565b005b6102a760048036038101906102a29190610a8c565b610846565b6040516102ba9796959493929190610dcf565b60405180910390f35b6102cb6109fb565b600660008381526020019081526020016000206040518060e0016040529081600082015481526020016001820160009054906101000a900473ffffffffffffffffffffffffffffffffffffffff1673ffffffffffffffffffffffffffffffffffffffff1673ffffffffffffffffffffffffffffffffffffffff168152602001600282015481526020016003820154815260200160048201548152602001600582015481526020016006820154815250509050919050565b60056020528060005260406000206000915054906101000a900460ff1681565b60025481565b60035481565b6000806103e8846103bf9190610e9c565b90506000603c846103d09190610e9c565b9050600454816103e09190610ecd565b600354836103ee9190610ecd565b6002546103fb9190610f0f565b6104059190610f0f565b9250505092915050565b6104176108a8565b8260028190555081600381905550806004819055507fa5453c9cdd29c4837d649aa0a23b6d8ad61c297b74389a915e3b991913b55bed83838360405161045f93929190610f43565b60405180910390a1505050565b6104746108a8565b61047e600061092f565b565b60008060009054906101000a900473ffffffffffffffffffffffffffffffffffffffff16905090565b6104b16108a8565b6000600560008373ffffffffffffffffffffffffffffffffffffffff1673ffffffffffffffffffffffffffffffffffffffff16815260200190815260200160002060006101000a81548160ff0219169083151502179055507fe5b325d2c088e6de57ff59e6a9e91e46c56ce6c1f8d7b80e3ab7ce5b8cd7e4b6816040516105389190610d26565b60405180910390a150565b600560003373ffffffffffffffffffffffffffffffffffffffff1673ffffffffffffffffffffffffffffffffffffffff16815260200190815260200160002060009054906101000a900460ff166105cf576040517f08c379a00000000000000000000000000000000000000000000000000000000081526004016105c690610fd7565b60405180910390fd5b60006105db84846103ae565b9050600160008154809291906105f090610ff7565b9190505550600060015490506040518060e001604052808281526020013373ffffffffffffffffffffffffffffffffffffffff16815260200186815260200185815260200183815260200142815260200184815250600660008381526020019081526020016000206000820151816000015560208201518160010160006101000a81548173ffffffffffffffffffffffffffffffffffffffff021916908373ffffffffffffffffffffffffffffffffffffffff16021790555060408201518160020155606082015181600301556080820151816004015560a0820151816005015560c082015181600601559050507f7dab26c3550378edfd94b37d78ff9ea41e647a608fc79777bdb712921371dbdb8133846040516107119392919061103f565b60405180910390a15050505050565b60045481565b61072e6108a8565b6001600560008373ffffffffffffffffffffffffffffffffffffffff1673ffffffffffffffffffffffffffffffffffffffff16815260200190815260200160002060006101000a81548160ff0219169083151502179055507fbe5e7a1c543800c6abb49749a131598b050660d403a09b2e31318c2048c00d74816040516107b59190610d26565b60405180910390a150565b6107c86108a8565b600073ffffffffffffffffffffffffffffffffffffffff168173ffffffffffffffffffffffffffffffffffffffff160361083a5760006040517f1e4fbdf70000000000000000000000000000000000000000000000000000000081526004016108319190610d26565b60405180910390fd5b6108438161092f565b50565b60066020528060005260406000206000915090508060000154908060010160009054906101000a900473ffffffffffffffffffffffffffffffffffffffff16908060020154908060030154908060040154908060050154908060060154905087565b6108b06109f3565b73ffffffffffffffffffffffffffffffffffffffff166108ce610480565b73ffffffffffffffffffffffffffffffffffffffff161461092d576108f16109f3565b6040517f118cdaa70000000000000000000000000000000000000000000000000000000081526004016109249190610d26565b60405180910390fd5b565b60008060009054906101000a900473ffffffffffffffffffffffffffffffffffffffff169050816000806101000a81548173ffffffffffffffffffffffffffffffffffffffff021916908373ffffffffffffffffffffffffffffffffffffffff1602179055508173ffffffffffffffffffffffffffffffffffffffff168173ffffffffffffffffffffffffffffffffffffffff167f8be0079c531659141344cd1fd0a4f28419497f9722a3daafe3b4186f6b6457e060405160405180910390a35050565b600033905090565b6040518060e0016040528060008152602001600073ffffffffffffffffffffffffffffffffffffffff16815260200160008152602001600081526020016000815260200160008152602001600080191681525090565b600080fd5b6000819050919050565b610a6981610a56565b8114610a7457600080fd5b50565b600081359050610a8681610a60565b92915050565b600060208284031215610aa257610aa1610a51565b5b6000610ab084828501610a77565b91505092915050565b610ac281610a56565b82525050565b600073ffffffffffffffffffffffffffffffffffffffff82169050919050565b6000610af382610ac8565b9050919050565b610b0381610ae8565b82525050565b6000819050919050565b610b1c81610b09565b82525050565b60e082016000820151610b386000850182610ab9565b506020820151610b4b6020850182610afa565b506040820151610b5e6040850182610ab9565b506060820151610b716060850182610ab9565b506080820151610b846080850182610ab9565b5060a0820151610b9760a0850182610ab9565b5060c0820151610baa60c0850182610b13565b50505050565b600060e082019050610bc56000830184610b22565b92915050565b610bd481610ae8565b8114610bdf57600080fd5b50565b600081359050610bf181610bcb565b92915050565b600060208284031215610c0d57610c0c610a51565b5b6000610c1b84828501610be2565b91505092915050565b60008115159050919050565b610c3981610c24565b82525050565b6000602082019050610c546000830184610c30565b92915050565b610c6381610a56565b82525050565b6000602082019050610c7e6000830184610c5a565b92915050565b60008060408385031215610c9b57610c9a610a51565b5b6000610ca985828601610a77565b9250506020610cba85828601610a77565b9150509250929050565b600080600060608486031215610cdd57610cdc610a51565b5b6000610ceb86828701610a77565b9350506020610cfc86828701610a77565b9250506040610d0d86828701610a77565b9150509250925092565b610d2081610ae8565b82525050565b6000602082019050610d3b6000830184610d17565b92915050565b610d4a81610b09565b8114610d5557600080fd5b50565b600081359050610d6781610d41565b92915050565b600080600060608486031215610d8657610d85610a51565b5b6000610d9486828701610a77565b9350506020610da586828701610a77565b9250506040610db686828701610d58565b9150509250925092565b610dc981610b09565b82525050565b600060e082019050610de4600083018a610c5a565b610df16020830189610d17565b610dfe6040830188610c5a565b610e0b6060830187610c5a565b610e186080830186610c5a565b610e2560a0830185610c5a565b610e3260c0830184610dc0565b98975050505050505050565b7f4e487b7100000000000000000000000000000000000000000000000000000000600052601260045260246000fd5b7f4e487b7100000000000000000000000000000000000000000000000000000000600052601160045260246000fd5b6000610ea782610a56565b9150610eb283610a56565b925082610ec257610ec1610e3e565b5b828204905092915050565b6000610ed882610a56565b9150610ee383610a56565b9250828202610ef181610a56565b91508282048414831517610f0857610f07610e6d565b5b5092915050565b6000610f1a82610a56565b9150610f2583610a56565b9250828201905080821115610f3d57610f3c610e6d565b5b92915050565b6000606082019050610f586000830186610c5a565b610f656020830185610c5a565b610f726040830184610c5a565b949350505050565b600082825260208201905092915050565b7f4e6f742061207265676973746572656420647269766572000000000000000000600082015250565b6000610fc1601783610f7a565b9150610fcc82610f8b565b602082019050919050565b60006020820190508181036000830152610ff081610fb4565b9050919050565b600061100282610a56565b91507fffffffffffffffffffffffffffffffffffffffffffffffffffffffffffffffff820361103457611033610e6d565b5b600182019050919050565b60006060820190506110546000830186610c5a565b6110616020830185610d17565b61106e6040830184610c5a565b94935050505056fea264697066735822122095dcc48c60cd5a0599a66961fba98d2ce347e35d08d0119ec10dbe695aeb321a64736f6c63430008140033",
  "linkReferences": {},
  "deployedLinkReferences": {}
}